:020000040800F2
:10000000281D002081770008AD050008AF05000815
:10001000B3050008B7050008BB0500080000000094
:10002000000000000000000000000000BF05000804
:10003000C105000800000000C30500080D1D0008F0
:100040009B7700089B7700089B7700089B77000848
:100050009B7700089B7700089B7700089B77000838
:100060009B7700089B7700089B7700089B77000828
:100070009B7700089B7700089B7700089B77000818
:100080009B7700089B7700089B7700089B77000808
:100090009B7700089B7700089B7700089B770008F8
:1000A0009B7700089B7700089B7700089B770008E8
:1000B000D11A00089B7700084D1A00089B770008AA
:1000C0009B7700089B7700089B7700089B770008C8
:1000D0009B770008BD670008711B00089B7700082C
:1000E000156400089B7700089B77000800F002F871
:1000F00000F0B4F80AA090E8000C82448344AAF10E
:100100000107DA4501D100F0A9F8AFF2090EBAE80B
:100110000F0013F0010F18BFFB1A43F0010318473B
:10012000E0AA000000AB000010F8013B0A4413F005
:10013000030408BF10F8014B1D1108BF10F8015B44
:10014000641E05D010F8016B641E01F8016BF9D133
:10015000002D15D010F8014B03F00C030C2BA1EB74
:1001600004040ABF10F8013BA4EB8314A4EB03249E
:1001700005F1010314F8016B5B1E01F8016BF9D561
:10018000914238BF10F8013BD1D3704700230024BF
:1001900000250026103A28BF78C1FBD8520728BF97
:1001A00030C148BF0B6070476E2908F0E1847029A8
:1001B00008F0238666290AF0958065290AF0928066
:1001C00067290AF08F8061290AF08E8003681B0A74
:1001D00028BF41F08001692908F08E84642908F065
:1001E0008B84752908F088846F2908F0B0857829F8
:1001F00008F0EF85E92908F04B85E42908F04885E7
:10020000F52908F04585EF2908F0AD85F82908F0B3
:10021000EE850368DB0928BF41F08001632909F0FE
:10022000EF82732909F0F482E32909F0FF82F329B0
:1002300009F00483002070471FB509F051FB04004A
:10024000002000210AF038F8401C606000200021E6
:100250000AF01CF8E0601FBD10B510BD09F012FBDC
:100260001146FFF7E9FF00F06FF909F0EBFB03B46B
:10027000FFF7F2FF03BC06F047FA000008B50121C2
:10028000102007F027FE4FF40050ADF800001020BA
:100290008DF8030003208DF802006946BF4807F07F
:1002A0005DFB4FF40051BD4807F005FC08BD08B5E3
:1002B0000121042007F00EFE4FF47060ADF800003D
:1002C00003208DF8020010208DF803006946B44821
:1002D00007F044FB4FF47061B14807F0EEFB08BD36
:1002E00008B50121042007F0F5FDF020ADF800006D
:1002F00003208DF8020028208DF803006946A848E5
:1003000007F02CFB08BD08B50121082007F0E2FD2D
:100310004FF60340ADF8000010208DF803000320D5
:100320008DF8020069469D4807F018FB4FF603411F
:100330009A4807F0C2FB08BD10B59A490888411CCD
:10034000984A1180B0F57A7F13DB002011460880AF
:10035000954890F8240060B1934890F82400401E1E
:10036000914981F82400084690F8240008B902F069
:100370005CF88D48408C90B18B48408C401E8A4977
:1003800048840846408C50B9084690F88400FF28FD
:1003900005D1084690F8860008B902F046F8824870
:1003A000806A20B18048806A401E7F4988627E480A
:1003B000406D20B17C48406D401E7B4948657A48BD
:1003C000806D20B17848806D401E774988657648F9
:1003D000C06D20B17448C06D401E7349C865724835
:1003E000006E20B17048006E401E6F4908666E486E
:1003F000806B20B16C48806B401E6B4988636A48F3
:10040000006C20B16848006C401E6749086466486B
:10041000806C20B16448806C401E634988646248E7
:10042000006D20B16048006D401E5F4908655E4860
:10043000406B20B15C48406B401E5B4948635A48A2
:10044000C06B20B15848C06B401E5749C86356481E
:10045000406C20B15448406C401E53494864524897
:10046000C06C20B15048C06C401E4F49C8644E4813
:10047000406E20B14C48406E401E4B4948664A4889
:10048000806E20B14848806E401E474988664648C5
:10049000C06E20B14448C06E401E4349C866424801
:1004A000006F20B14048006F401E3F4908673E483A
:1004B000006B20B13C48006B401E3B4908633A4842
:1004C000406F60B13848406F401E37494867084662
:1004D000406F20B94FF48071314807F0EEFA32488E
:1004E000806F60B13048806F401E2F498867084692
:1004F000806F20B94FF40071294807F0DEFA2A48CE
:10050000C06F60B12848C06F401E2749C8670846C1
:10051000C06F20B94FF48061214807F0CEFA22481D
:10052000D0F8800078B12048D0F88000401E1E49E5
:10053000C1F880000846D0F8800020B94FF400616F
:10054000174807F0BAFA10BD06F06EF806F0D6F8B4
:100550004FF4614001F03BFBFFF7A9FEFFF7C0FE3F
:10056000FFF7D1FE00F00AFD06F014F800F00CFAD7
:1005700005F025FE05F019FE05F004FF01F0CDFAA7
:100580000BE005F010FD0848008C30B10648008CE7
:10059000401E05490884FFF7CFFEF2E7000C01403A
:1005A000000801400E0000202C120020704700BF00
:1005B000FEE700BFFEE700BFFEE700BFFEE77047B3
:1005C000704770470CB50020019000906C4800689F
:1005D00040F480306A49086000BF6948006800F450
:1005E000003000900198401C0190009818B90198C3
:1005F000B0F5A06FF1D16248006800F4003010B18E
:100600000120009001E0002000900098012843D1D3
:100610005C48006840F010005A49086008460068CD
:1006200020F0030008600846006840F002000860FF
:100630005348406852494860084640684860084648
:10064000406840F4806048600846406820F47C10B0
:1006500048600846406840F4E81048600846006872
:1006600040F08070086000BF4548006800F00070EE
:100670000028F9D04248406820F003004049486013
:100680000846406840F00200486000BF3C484068AF
:1006900000F00C000828F9D10CBD10B5FFF792FF4F
:1006A00010BD10B53648006840F0010034490860BC
:1006B00008464068344908403149486008460068A7
:1006C000324908402E4908600846006820F480201E
:1006D00008600846406820F4FE0048604FF41F00A0
:1006E0008860FFF7DAFF4FF000602949086010BD0D
:1006F00010B5002100200022214B5B6803F00C01A3
:1007000021B1042906D0082928D107E0214B224C29
:10071000236027E01F4B204C236023E0184B5B68CD
:1007200003F47010164B5B6803F48032022303EB72
:10073000904022B9194B4343174C23600DE0104BF6
:100740005B6803F4003323B1144B4343124C236022
:1007500003E0104B4343104C236003E00D4B0E4C61
:10076000236000BF00BF064B5B68C3F303130C4C50
:10077000E15C094B1B68CB40074C236010BD0000B7
:1007800000100240002002400000FFF8FFFFF6FECC
:1007900008ED00E000127A001000002000093D0082
:1007A0001400002010B50121F94807F084F9022156
:1007B000F74807F080F90221F54807F07EF901219A
:1007C000F34807F07AF910BD10B50121F04807F0A1
:1007D00072F90221EE4807F070F90221EC4807F0A7
:1007E0006AF910BD10B50121E94807F064F901214B
:1007F000E74807F062F910BD2DE9F04105462C46A7
:100800000121E34807F059F9002619E0274607F0CF
:100810008007802F04D10221DD4807F04CF903E066
:100820000221DB4807F049F96006040E0121D8488F
:1008300007F041F90121D64807F03FF9701CC6B214
:10084000082EE3DBBDE8F08110B50446FFF7AAFFF0
:100850007820FFF7D1FFFFF7C5FF0020FFF7CCFF9F
:10086000FFF7C0FF2046FFF7C7FFFFF7BBFFFFF70B
:10087000ABFF10BD10B50446FFF794FF7820FFF7DB
:10088000BBFFFFF7AFFF4020FFF7B6FFFFF7AAFF60
:100890002046FFF7B1FFFFF7A5FFFFF795FF10BD5B
:1008A00070B504460D461DB1E0B2FFF7E3FF02E06C
:1008B000E0B2FFF7C9FF70BD70B50646002418E02E
:1008C00004F1B0000021FFF7EBFF00210846FFF71D
:1008D000E7FF00211020FFF7E3FF002505E00121DD
:1008E0003046FFF7DDFF681CC5B2802DF7DB601CCA
:1008F000C4B2082CE4DB70BD06E041F6650100E0FF
:10090000491E0029FCD1401E0028F6D1704701463F
:1009100005E0002001E0421CD0B27B28FBDB0A1E70
:10092000A1F10101F5D1704770B504460D4605F1FE
:10093000B0000021FFF7B4FF102141EA141000219C
:10094000FFF7AEFF04F00F000021FFF7A9FF70BD15
:1009500010B500218D20FFF7A3FF00211420FFF721
:100960009FFF0021AF20FFF79BFF10BD10B50021B6
:100970008D20FFF795FF00211020FFF791FF002148
:10098000AE20FFF78DFF10BD70B5002418E004F114
:10099000B0000021FFF784FF00210846FFF780FF29
:1009A00000211020FFF77CFF002505E00121002039
:1009B000FFF776FF681CC5B2802DF7DB601CC4B260
:1009C000082CE4DB70BD70B5002418E004F1B00021
:1009D0000021FFF765FF00210846FFF761FF0021B6
:1009E0001020FFF75DFF002505E001210846FFF715
:1009F00057FF681CC5B2802DF7DB601CC4B2082C01
:100A0000E4DB70BD2DE9F04707460E469046994657
:100A100000250024A8F12000C5B27F2F02DD0027A9
:100A2000B01CC6B2B9F1100F24D131463846FFF7D9
:100A30007BFF002408E004EB0511564A505C0121BD
:100A4000FFF72EFF601CC4B2082CF4DB701CC1B28F
:100A50003846FFF769FF002409E004EB051108316F
:100A60004C4A505C0121FFF71BFF601CC4B2082CEC
:100A7000F3DB12E031463846FFF756FF00240AE068
:100A800005EB4501444A02EB4101085D0121FFF7F6
:100A900007FF601CC4B2062CF2DBBDE8F08710B57E
:100AA0000246012000E050430B1EA1F10104E1B217
:100AB000F9D110BD2DE9FF5F074691461E460E9DF8
:100AC0004FF0000A002435E0301B401EC1B20A205E
:100AD000FFF7E5FFB9FBF0F00A21B0FBF1F201FBF3
:100AE0001208BAF1000F14D1701EA04211DDB8F146
:100AF000000F0CD1AB4605EBDB71491001FB047113
:100B0000C8B22B4620220199FFF77CFF10E04FF07E
:100B1000010AAB4605EBDB71491001FB0471C8B259
:100B200008F13001CAB22B460199FFF76BFF00BFF5
:100B3000601CC4B2B442C7DBBDE8FF9F2DE9F041A1
:100B400004460F461546984600260FE0AA5D434628
:100B500039462046FFF756FF04F10800C4B2782C4E
:100B600002DD0024B81CC7B2701CC6B2A85D002804
:100B7000ECD1BDE8F0812DE9F04180460E461546E6
:100B8000002731464046FFF7CFFE002411E0000069
:100B90000008014014A50008ECA20008F64A02EB88
:100BA0008511085D0121FFF77BFE781CC7B2601C30
:100BB000C4B2102CF2DB701CC1B24046FFF7B4FE89
:100BC00000240CE06900491CEB4A02EB4111085D6E
:100BD0000121FFF765FE781CC7B2601CC4B2102C5F
:100BE000F0DBBDE8F0812DE9F84F06460F46904650
:100BF0001C46DDF828A04FF0000B00200090E11704
:100C000004EB5171C910A4EBC10131B92046E117C1
:100C100004EB5171C1F3C70506E02046E11704EB70
:100C20005171C910491CCDB23D4617E029463046E6
:100C3000FFF77AFEB1460DE058460BF1010B1AF8AA
:100C40000000009001210098FFF72AFE09F1010041
:100C500000F0FF09C145EFDB681CC5B2A542E5DB2A
:100C6000BDE8F88F2DE9F04705460E461746984631
:100C7000DDF820A04FF00009BAF1090F1ED2DFE81D
:100C80000AF01D05080B0E1114171A004FF0010988
:100C900015E04FF0030912E04FF007090FE04FF0A5
:100CA0000F090CE04FF01F0909E04FF03F0906E083
:100CB0004FF07F0903E04FF0FF0900E000BF00BFE5
:100CC00009FA08F939462846FFF72EFE2C4605E0BA
:100CD00001214846FFF7E4FD601CC4B2B442F7DBD3
:100CE000BDE8F0872DE9F04705460E4617469846C1
:100CF000DDF820A04FF00009BAF1090F1ED2DFE89D
:100D00000AF01D05080B0E1114171A004FF0010907
:100D100015E04FF0030912E04FF007090FE04FF024
:100D20000F090CE04FF01F0909E04FF03F0906E002
:100D30004FF07F0903E04FF0FF0900E000BF00BF64
:100D400009FA08F939462846FFF7EEFD2C460DE072
:100D500004F0040020B101214846FFF7A1FD03E0A3
:100D600001210020FFF79CFD601CC4B2B442EFDB00
:100D7000BDE8F0872DE9F04704460E461746984631
:100D80004FF0FF0A354613E029462046FFF7CCFD19
:100D9000A14607E001215046FFF782FD09F101005D
:100DA00000F0FF0904EB08004845F3DC681CC5B2FD
:100DB000BD42E9DBBDE8F0872DE9F04704460E4669
:100DC000174698464FF0CC0A354613E02946204690
:100DD000FFF7AAFDA14607E001215046FFF760FD9D
:100DE00009F1010000F0FF0904EB08004845F3DCBD
:100DF000681CC5B2BD42E9DBBDE8F0872DE9FC5FA8
:100E00000746884691469A46DDF830B0FF200190AB
:100E1000AAEB0900002879DD0D9858440838C5B2BE
:100E2000BBF1080F1DD2DFE80BF004070A0D101309
:100E30001619FF20019015E0FE20019012E0FC2021
:100E400001900FE0F82001900CE0F020019009E003
:100E50007020019006E03020019003E01020019006
:100E600000E000BF00BF49463846FFF75DFD3C4645
:100E700005E001210198FFF713FD601CC4B2444551
:100E8000F7DBE91705EB5171C910A5EBC101A1B959
:100E90004E460FE031463846FFF746FD3C4605E03A
:100EA0000121FF20FFF7FCFC601CC4B24445F7DBC6
:100EB000701CC6B25645EDDD5CE009F10100C6B21A
:100EC0000FE031463846FFF72FFD3C4605E0012193
:100ED000FF20FFF7E5FC601CC4B24445F7DB701C43
:100EE000C6B25645EDDB2846E91705EB5171C9102E
:100EF000A5EBC101092922D2DFE801F005090C0F99
:100F00001215181B1E00FF20019019E028E0012097
:100F1000019015E00320019012E0072001900FE0FE
:100F20000F2001900CE01F20019009E03F2001906C
:100F300006E07F20019003E0FF20019000E000BF69
:100F400000BF51463846FFF7EFFC3C4605E0012163
:100F50000198FFF7A5FC601CC4B24445F7DB09E02B
:100F60000D980090CBF10800C3B24A46414638467E
:100F7000FFF778FEBDE8FC9F2400002008B50121A2
:100F8000042006F0A7FF0320ADF8000010208DF824
:100F9000030003208DF8020069463C4806F0DEFCA1
:100FA00003213A4806F087FD4FF4487005F079FBBD
:100FB0000021AE20FFF774FC00210846FFF770FC0B
:100FC00000211020FFF76CFC00214020FFF768FC97
:100FD0000021B020FFF764FC00218120FFF760FCB6
:100FE0000021FF20FFF75CFC0021A120FFF758FC47
:100FF0000021A620FFF754FC0021A820FFF750FC99
:1010000000213F20FFF74CFC0021C820FFF748FCDF
:101010000021D320FFF744FC00210846FFF740FCE5
:101020000021D520FFF73CFC00218020FFF738FC91
:101030000021D820FFF734FC00210520FFF730FC09
:101040000021D920FFF72CFC0021F120FFF728FC1C
:101050000021DA20FFF724FC00211220FFF720FCFA
:101060000021DB20FFF71CFC00213020FFF718FCDB
:1010700000218D20FFF714FC00211420FFF710FC45
:101080000021AF20FFF70CFC08BD00000008014064
:1010900008B50121052006F01DFF0121FE4806F0DC
:1010A0002EFD0121042006F015FF4FF40040ADF89D
:1010B000000028208DF8030003208DF80200694607
:1010C000F64806F04BFC08BD00BFF549098801F061
:1010D00040010029F9D0F249091D0880704710B578
:1010E000EF20FFF7F1FF0120FFF7EEFF10BD10B575
:1010F000EC490968080EFFF7E7FFEA480068C0F30B
:101100000740FFF7E1FFE7480088C0F30720FFF73B
:10111000DBFFE4490878FFF7D7FF10BD10B50446A0
:101120002046FFF7D1FF10BD10B50446C4F30720D9
:10113000FFF7CAFFE0B2FFF7C7FF10BD10B50446C6
:101140002046FFF7C1FF10BD10B504462012FFF77F
:10115000BBFFE0B2FFF7B8FF10BD7CB50546EF203E
:101160008DF8000001208DF80100CE480068000EC7
:101170008DF80200CB480068000C8DF80300C948C8
:101180000088000A8DF80400C64800788DF8050034
:1011900007208DF8060000208DF80700C24908805E
:1011A00012E0012005F07DFABF48008800F40040FD
:1011B00050B10020BC4908806946BC4807F004FCD7
:1011C00004460CB120467CBD681E80B2051EE8D1E5
:1011D00000BFF8E770B5FFF782FFFFF788FF012037
:1011E000FFF79CFF0320FFF79FFF0120FFF7A6FFFB
:1011F00005263046FFF7A8FF4FF4FA60FFF7ADFF72
:1012000005460DB16C7A00E0FF24204670BD2DE943
:10121000F0410546FFF763FFFFF769FF0120FFF785
:101220007DFF0420FFF780FF0220FFF787FF28469D
:10123000FFF74AFFEF1D3846FFF786FF4FF4FA60CD
:10124000FFF78BFF06460EB1747A00E0FF242046BC
:10125000BDE8F08170B5FFF742FFFFF748FF0120BE
:10126000FFF75CFF0320FFF75FFF0320FFF766FF38
:1012700007263046FFF768FF4FF4FA60FFF76DFF6F
:1012800005460DB16C7A00E0FF24204670BD2DE9C3
:10129000F04781460D4616461F46FFF720FFFFF731
:1012A00026FF0120FFF73AFF0820FFF73DFF04204B
:1012B000FFF744FF4846FFF707FF2812FFF704FF38
:1012C000E8B2FFF701FF3012FFF7FEFEF0B2FFF7C2
:1012D000FBFE09F10D0000EB2520E9B2084400EB0C
:1012E0002620F1B200EB010A5046FFF72DFF4FF424
:1012F000FA60FFF732FF044664B194F80980E07A9F
:10130000A17A00EB01203880607B217B00EB01207B
:10131000788001E04FF0FF084046BDE8F08770B5E7
:10132000FFF7DDFEFFF7E3FE0120FFF7F7FE0320E6
:10133000FFF7FAFE0520FFF701FF09263046FFF709
:1013400003FF4FF4FA60FFF708FF05460DB16C7A12
:1013500000E0FF24204670BD2DE9F04106460C4612
:10136000FFF7BDFEFFF7C3FE0120FFF7D7FE062003
:10137000FFF7DAFE0620FFF7E1FE3046FFF7A4FE96
:101380002012FFF7A1FEE0B2FFF79EFE06F10D006E
:1013900000EB2420E1B200EB01084046FFF7D4FE49
:1013A0004FF4FA60FFF7D9FE07460FB17D7A00E0EF
:1013B000FF252846BDE8F0812DE9F04104460D46A1
:1013C000FFF78DFEFFF793FE0120FFF7A7FE072032
:1013D000FFF7AAFE0C20FFF7B1FE2012FFF774FE04
:1013E000E0B2FFF771FE2812FFF76EFEE8B2FFF7DA
:1013F0006BFE142000EB2420E1B2084400EB252012
:10140000E9B200EB01084046FFF79EFE4FF4FA6098
:10141000FFF7A3FE07460FB17E7A00E0FF263046B5
:10142000BDE8F08170B5FFF75AFEFFF760FE0120BE
:10143000FFF774FE0320FFF777FE0D20FFF77EFE17
:1014400011263046FFF780FE4FF4FA60FFF785FE65
:1014500005460DB16C7A00E0FF24204670BD2DE9F1
:10146000F04106460C46FFF73AFEFFF740FE01202A
:10147000FFF754FE0520FFF757FE0E20FFF75EFE34
:101480003046FFF721FE2046FFF71EFE301900F11F
:10149000140840460CE00000000230000008014043
:1014A0000044004064000020BE000020DC12002048
:1014B000FFF74AFE4FF4FA60FFF74FFE07460FB101
:1014C0007D7A00E0FF252846BDE8F0812DE9F04156
:1014D0000546FFF704FEFFF70AFE0120FFF71EFE98
:1014E0000320FFF721FE0F20FFF728FE13273846C1
:1014F000FFF72AFE4FF47A70FFF72FFE0446BCB1C7
:10150000667AE07BA17B00EB01202880607CA870DC
:10151000A07C0006E17C00EB0140217D00EB012076
:10152000617D08446860E07D2872607E687200E03A
:10153000FF263046BDE8F0812DE9F0410446FFF773
:10154000CEFDFFF7D4FD0120FFF7E8FD0720FFF7F0
:10155000EBFD1520FFF7F2FD200EFFF7B5FDC4F3FC
:101560000740FFF7B1FDC4F30720FFF7ADFDE0B280
:10157000FFF7AAFD1D2000EB1460C4F307410844E7
:10158000C4F307210844E1B247183846FFF7DCFDF1
:10159000B14804604FF4FA60FFF7DFFD06460EB174
:1015A000757A00E0FF25AC4804602846BDE8F0816C
:1015B0002DE9F04781460E46FFF791FDFFF797FDB5
:1015C0000120FFF7ABFD2420FFF7AEFD1820FFF749
:1015D000B5FD4846FFF778FD002407E0305DFFF7D2
:1015E00073FD305D384487B2601CC4B2202CF5DB3B
:1015F00009F13D00384487B23846FFF7A5FD4FF4A6
:10160000FA60FFF7AAFD054615B195F8098001E0DB
:101610004FF0FF084046BDE8F0872DE9F047074648
:101620008846FFF75CFDFFF762FD0120FFF776FDBE
:101630000420FFF779FD1920FFF780FD3846FFF7FA
:1016400043FD07F11E094846FFF77EFD4FF4FA609F
:10165000FFF783FD064666B1757A002406E004F1C3
:101660000A00305C08F80400601CC4B2202CF6DBD1
:1016700000E0FF252846BDE8F0872DE9F0478146C8
:101680000D4616461F46FFF72AFDFFF730FD0120E5
:10169000FFF744FD0820FFF747FD1B20FFF74EFD35
:1016A0004846FFF711FD2812FFF70EFDE8B2FFF7DD
:1016B0000BFD3012FFF708FDF0B2FFF705FD09F151
:1016C000240000EB2520E9B2084400EB2620F1B20B
:1016D00000EB010A5046FFF737FD4FF4FA60FFF7C1
:1016E0003CFD044664B194F80980E07AA17A00EBED
:1016F00001203880607B217B00EB0120788001E0B5
:101700004FF0FF084046BDE8F0872DE9F04106465E
:10171000FFF7E5FCFFF7EBFC0120FFF7FFFC0320E0
:10172000FFF702FD1D20FFF709FD21273846FFF7CF
:101730000BFD4FF4FA60FFF710FD044634B1657AF3
:10174000E07AA17A00EB0120308000E0FF252846F6
:10175000BDE8F08170B505460024FFF7C0FCFFF737
:10176000C6FC00BF04E03D49085DFFF7ADFC641C0A
:101770000A2CF8DBC82004F094FF3948008800F4F4
:10178000004008B337480078EF281AD13548407830
:10179000012816D133488079072812D13148807842
:1017A00000063049C97800EB01402E49097900EB69
:1017B00001202C49497908442860002028490880E4
:1017C00070BD0020264908800120F9E70146212943
:1017D0003ED2DFE801F011131517191B1D1F21233D
:1017E00025273D3D3D3D292B3D3D3D2D3D3D2F31A7
:1017F0003335373D3D393B001BA02BE01BA029E0D2
:101800001EA027E022A025E026A023E02DA021E0B5
:1018100034A01FE03AA01DE047A01BE049A019E05A
:101820004CA017E04FA000BF57A013E05AA011E052
:101830005DA00FE065A00DE068A00BE06AA009E0E4
:101840006DA007E071A005E075A003E077A001E0BE
:1018500079A000BF00BF704764000020680000202E
:10186000BE000020DC1200204F4B0000CAFDBEDD90
:10187000B0FCBDD3CAD5B4EDCEF30000B4ABB8D044
:10188000C6F7C9CFC3BBD3D0CAD6D6B800000000B4
:10189000C2BCC8EBD6B8CEC6CDBCCFF1CAA7B0DCAF
:1018A00000000000D6B8CEC6CDBCCFF1CCABB8C9D5
:1018B000A1A2CCABB5ADB6F8C9FAB2BBB3C9CCD80E
:1018C000D5F70000D6B8CEC6CDBCCFF1CCABCAAAF6
:1018D000A1A2CCABBAFDB6F8C9FAB2BBB3C9CCD899
:1018E000D5F70000D6B8CEC6CDBCCFF1CCABC2D2B6
:1018F000B6F8C9FAB2BBB3C9CCD8D5F7000000001E
:10190000D6B8CEC6CDBCCFF1D5FDB3A3A3ACB5AB95
:10191000CCD8D5F7B5E3CCABC9D9A3A8BBF2C3E605
:10192000BBFDCCABD0A1A3A9B6F8C9FAB2BBB3C971
:10193000CCD8D5F700000000D6B8CEC6B2BBC6A53D
:10194000C5E40000C3BBCBD1CBF7B5BDD6B8CEC67E
:1019500000000000CCD8D5F7BACFB2A2CAA7B0DC3D
:1019600000000000B7C3CECAD6B8CEC6BFE2CAB127
:10197000B5D8D6B7D0F2BAC5B3ACB3F6D6B8CEC6E2
:10198000BFE2B7B6CEA70000C9BEB3FDC4A3B0E5A1
:10199000CAA7B0DC00000000C7E5BFD5D6B8CEC6E8
:1019A000BFE2CAA7B0DC0000BBBAB3E5C7F8C4DA2F
:1019B000C3BBD3D0D3D0D0A7D4ADCABCCDBCB6F8AE
:1019C000C9FAB2BBB3C9CDBCCFF10000B6C1D0B427
:1019D00020464C41534820B3F6B4ED00CEB4B6A82F
:1019E000D2E5B4EDCEF30000CEDED0A7BCC4B4E6A1
:1019F000C6F7BAC500000000BCC4B4E6C6F7C9E823
:101A0000B6A8C4DAC8DDB4EDCEF30000BCC7CAC2C4
:101A1000B1BED2B3C2EBD6B8B6A8B4EDCEF30000D7
:101A2000D6B8CEC6BFE2C2FA00000000B5D8D6B71D
:101A3000B4EDCEF300000000C4A3BFE9B7B5BBD836
:101A4000C8B7C8CFC2EBD3D0CEF3000010B5012188
:101A5000444805F0F2FD68B14348008840F4004076
:101A60004149088001213F4805F0F8FD00213D482B
:101A700005F01AFB10BD7FB505460C460121042078
:101A800006F035FAADF80450ADF800400020ADF88E
:101A90000600ADF802006946324804F0A9FF0122B1
:101AA0001146304805F01BFB01212E4805F0FCFAD9
:101AB0001E208DF80C0000208DF80D0002208DF8FE
:101AC0000E0001208DF80F0003A805F07EFE7FBDFB
:101AD00010B50121880705F0B0FD40B1012188074C
:101AE00005F0BCFD2148008C401C2049088410BD35
:101AF00008B54FF4E06005F063FE1C208DF800008F
:101B000000208DF8010003208DF8020001208DF8DF
:101B10000300684605F059FE08BD0EB501210846D0
:101B200006F0E5F9FFF7E4FF4FF47A70ADF8040032
:101B30004720ADF800000020ADF8020069464FF0E4
:101B4000804004F055FF0121880705F087FD012240
:101B50001146900705F0C3FA0121880705F0A4FAA1
:101B60000EBD000000080040BE0000202C12002026
:101B700010B540F22551564806F0D0FBF8B1544854
:101B800006F04CFBC4B25348008800F40040B0B9E2
:101B900050480088B0F5C87F12DA00214E4805F0A1
:101BA00017FD4C48008818B901214B4805F07CFA14
:101BB00048490888411C474A118048490C5405E0AF
:101BC0004448008840F400404249088010BD10B5E8
:101BD00086B004460121042006F07CF90121480466
:101BE00006F085F93A4806F0D9F90420ADF810005E
:101BF00003208DF8120018208DF8130004A938482E
:101C000005F0ACFE0820ADF8100048208DF8130058
:101C100004A9344805F0A2FE00940020ADF80400A9
:101C2000ADF80600ADF80800ADF80C000C20ADF8DA
:101C30000A006946264806F0F4F90121244806F016
:101C40007CFA012240F22551214806F082FA262032
:101C50008DF8140002208DF8150003208DF8160071
:101C600001208DF8170005A805F0AFFD41F61F41D2
:101C70006320FFF700FF0020164908800021164866
:101C800005F012FA06B010BD0FB438B505A80090E3
:101C90001548009A049906F085FE0020009012482D
:101CA00006F0A4FE85B200240DE000BF40210848E4
:101CB00006F01EFB0028F9D00B48015D044806F031
:101CC000A9FA601C84B2AC42EFDB38BC5DF814FBAF
:101CD00000440040BE00002000080040DC1200204C
:101CE00000080140000C01406C14002010B50028D1
:101CF00007DA0A07140EFE4A00F00F031B1FD45424
:101D000003E00A07130EFB4A135410BD10B5FA483E
:101D10000088401CF8490880F8480088401CF749B2
:101D20000880F7480088401CF5490880F54800887D
:101D300020B1F4480088401EF2490880F24800882B
:101D4000401C80B2F0490880B0F57A7F20DB00208B
:101D50000880EE480078D8B106F02DFBEC4800680A
:101D6000401CEB490860052812D90020086000BF1C
:101D7000DF480C38006800F4E060E6490843001DC5
:101D8000DB490C390860BFF34F8F00BF00BFFEE78F
:101D900010BD00EB800100BF0A1EA1F10101FBD1C3
:101DA000704708E0002100E0491C41F2A402914282
:101DB000FAD3421E90B20028F4DC704705E011F817
:101DC000013B00F8013B531EDAB2002AF7DC7047F2
:101DD00030B5034609E013F8014B11F8015BAC4242
:101DE00001D0002030BD501EC2B2002AF3DC012019
:101DF000F8E7411CC34A118000BFC2490988002985
:101E0000FBD1704710B5042005F029FDC2480068D9
:101E10004FF47A71B0FBF1F4B4F1807F01D301206B
:101E200011E024F07F40401E4FF0E02148610F2177
:101E30004FF0FF30FFF75AFF00204FF0E02188619C
:101E400007200861002008B100BFFEE70021481EFE
:101E5000FFF74CFF10BD10B5FFF7D4FF0020A749D6
:101E60000880A54908800120AC49887710BD10B5CD
:101E7000044645F2555006F095FA042006F095FA0E
:101E8000204606F095FA06F096FA06F099FA10BD8B
:101E900000209F4908607047024600210EE001EBD8
:101EA00081009F4B33F82000904205D101EB810067
:101EB00003EB800080787047481CC1B20A29EEDB32
:101EC000FF20F8E79748007808B10020704701200C
:101ED000FCE770B50346002409E033F8025B31F8F3
:101EE000026BB54201D0012070BD601CC4B29442A7
:101EF000F3DB0020F8E77FB500200090019002900E
:101F00000390451E854890F895008449C989884208
:101F100029D1824890F89610008A814223D17F48C7
:101F200090F89710408A81421DD17C4890F8981013
:101F3000808A814217D1794890F88D10C08A8142F9
:101F400011D1764890F88E10008B81420BD17348E6
:101F500090F88F10408B814205D1704890F8901016
:101F6000808B81427BD06D4890F895006B49C88189
:101F7000084690F89610018290F89710418290F8E8
:101F80009810818290F88D10C18290F88E10018394
:101F900090F88F10418390F89010818300240EE018
:101FA0005E498989604A02EB812008225B490E3133
:101FB00004F0B2FA054605B903E0601C44B2032CF4
:101FC000EEDB00BF55498989574A02EB8120082280
:101FD000694604F08AFA082250490E316846FFF734
:101FE00078FF002849D0002445E001243AE000248D
:101FF0000EE04A4989894C4A02EB81200822474970
:102000000E3104F089FA054605B903E0601C44B2BC
:10201000032CEEDB00BF41498989434A02EB812052
:102020000822694604F061FAD5B93C498C81002642
:1020300009E0072239493D4804F06EFA054605B922
:1020400003E0701C46B2032EF3DB00BF032E05D164
:102050000C2337A207211E20FEF770FD08E00CE0DC
:10206000601C44B22D488089C0F10300A042BEDC50
:1020700000BF601C44B2032CB7DB7FBD08B5FEF780
:1020800083FC2E4808238022002100900846FEF79A
:10209000AAFD224890F89D00052804D01F4890F81A
:1020A0009D00072807D12648042320220021009004
:1020B0000846FEF798FD194890F89E00052804D0C0
:1020C000164890F89E00072807D11D480423402297
:1020D000002100902020FEF786FD104890F89F0018
:1020E000052804D00D4890F89F00072832D129E038
:1020F00018ED00E000E400E0080000200A000020E5
:102100000C000020D8110020E61100200000002063
:10211000040000200000FA05100000202C1200200E
:1021200010110020DA11002000F4000800F000086F
:10213000666C61736820657272000000400C0020BC
:1021400048100020FC480423602200210090402019
:10215000FEF749FDF94890F8A000052804D0F7489B
:1021600090F8A000072807D1F3480423802200211B
:1021700000906020FEF737FDF04890F88D0020B108
:10218000012809D0022815D10DE00C23ECA205216D
:102190000420FEF7D3FC0EE00C23EAA20521042064
:1021A000FEF7CCFC07E00C23E7A205210420FEF794
:1021B000C5FC00E000BF00BFE04890F88E0020B1F1
:1021C000012809D0022815D10DE00C23DCA205213D
:1021D0002420FEF7B3FC0EE00C23DAA20521242014
:1021E000FEF7ACFC07E00C23D7A205212420FEF764
:1021F000A5FC00E000BF00BFD04890F88F0020B1E0
:10220000012809D0022815D10DE00C23CCA205210C
:102210004420FEF793FC0EE00C23CAA205214420C3
:10222000FEF78CFC07E00C23C7A205214420FEF733
:1022300085FC00E000BF00BFC04890F8900020B1CE
:10224000012809D0022815D10DE00C23BCA20521DC
:102250006420FEF773FC0EE00C23BAA20521642073
:10226000FEF76CFC07E00C23B7A205216420FEF703
:1022700065FC00E000BF00BFB04890F8950006285C
:102280002ED2DFE800F0030A11181F260C23AFA29C
:1022900007210020FEF752FC23E00C23ACA207210B
:1022A0000020FEF74BFC1CE00C23AAA20721002013
:1022B000FEF744FC00BF0C23A7A207210020FEF775
:1022C0003DFC00BF0C23A5A207210020FEF736FC31
:1022D00000BF0C23A3A207210020FEF72FFC00E083
:1022E00000BF00BF954890F8960006282ED2DFE880
:1022F00000F0030A11181F260C2394A207212020A6
:10230000FEF71CFC23E00C2391A207212020FEF7FE
:1023100015FC1CE00C238FA207212020FEF70EFCE9
:1023200000BF0C238CA207212020FEF707FC00BF72
:102330000C238AA207212020FEF700FC00BF0C23FB
:1023400088A207212020FEF7F9FB00E000BF00BFB4
:102350007A4890F8970006282ED2DFE800F0030AAA
:1023600011181F260C2379A207214020FEF7E6FB57
:1023700023E00C2376A207214020FEF7DFFB1CE0C0
:102380000C2374A207214020FEF7D8FB15E00C2394
:1023900071A207214020FEF7D1FB0EE00C236FA2B3
:1023A00007214020FEF7CAFB07E00C236DA207219E
:1023B0004020FEF7C3FB00E000BF00BF5F4890F87D
:1023C000980006282ED2DFE800F0030A11181F2615
:1023D0000C235EA207216020FEF7B0FB23E00C2354
:1023E0005BA207216020FEF7A9FB1CE00C2359A289
:1023F00007216020FEF7A2FB15E00C2356A207215F
:102400006020FEF79BFB0EE00C2354A20721602006
:10241000FEF794FB07E00C2352A207216020FEF791
:102420008DFB00E000BF00BF08BD10B5FF20434991
:1024300081F88400002081F8850081F8240081F86B
:10244000860081F8870081F88C0048658865C8653A
:10245000086648668866C866086781F8A50081F83E
:10246000A60081F8A70081F8A80081F8A90081F8EA
:10247000AA0081F8AB0081F8AC004FF470613B48D2
:1024800005F01BFBFFF7FAFDFFF735FD10BD70B53A
:1024900000252A4890F8850020B1012816D003288D
:1024A00049D185E01420254981F82400012081F8D4
:1024B000850000202E4908700025FEF765FA0C23E0
:1024C0002CA200210846FEF739FB8AE02F4800784D
:1024D00000286CD00520194981F8240003F0DBFFA7
:1024E0000446002C63D0B02C02D1FFF79EFF70BDD4
:1024F00027481F49097844541D480078401C1C494E
:102500000870084600780007050E0846007806287F
:1025100006D010232A2206212846FEF773FA46E049
:10252000FFF7D0FCB0BB0120044981F884000020F3
:1025300081F885003BE053E0481000202C12002079
:102540004657440052455600462D52005450440010
:1025500036353000373530003835300031303030E6
:102560000000000031393530000000000008014053
:10257000E8110020506C6561736520656E746572AA
:102580002070617373776F72643A00000912002043
:10259000DA110020FFE7FEF7F7F90C23F3A2002180
:1025A0000846FEF7CBFA0320F74981F8850018E0CA
:1025B000F648007898B11420F34981F824000120EE
:1025C00081F885000020F24908700025FEF7DCF94B
:1025D0000C23AFF2600200210846FEF7AFFA00E0DC
:1025E00000BF00BF00BF82E710B5E849097879B1A4
:1025F000E54991F88410FF290AD103F04CFF38B166
:10260000B02805D00021E04A82F8841082F88510B5
:1026100010BD10B5DC4890F8850010B1012874D1C8
:1026200024E01420D84981F82400012081F8850095
:102630000020D8490870FEF7A7F90C23D6A2002184
:102640000846FEF77BFA0C23D7A202210020FEF7F2
:1026500075FA0C23D7A204210020FEF76FFA0C2391
:10266000D7A206210020FEF769FAEDE0C7480078FE
:10267000002815D01420C44981F8240003F00BFF72
:102680000446002CF5D0382C0BD10320BE4981F82C
:102690008400002081F88500BE48007881F88C0015
:1026A000D0E0B02C07D10120B74981F88400002088
:1026B00081F8850010BD4A2C62D1B6480078032805
:1026C000EED0B4480078401CB2490870FEF75CF9BF
:1026D000B0480078012819D10C23BCA2002108467B
:1026E000FEF72CFA0C23BCA202210020FEF726FAEA
:1026F0000C23B0A204210020FEF720FA0C23B0A284
:1027000006210020FEF71AFA9CE09CE0A148007820
:10271000022818D10C23ADA200210846FEF70EFABC
:102720000C23A1A202210020FEF708FA0C23AEA27E
:1027300004210020FEF702FA0C23A1A206210020AA
:10274000FEF7FCF97EE09348007803287AD10C2349
:102750009EA200210846FEF7F1F90C2392A2022165
:102760000020FEF7EBF90C2392A204210020FEF7D3
:10277000E5F90C23A0A206210020FEF7DFF961E0B5
:10278000182C5FD18348007800285BD081480078FE
:10279000401E80490870FEF7F7F87E480078C0B9FF
:1027A0000C237DA200210846FEF7C8F90C237EA267
:1027B00002210020FEF7C2F90C237EA20421002092
:1027C000FEF7BCF90C237EA206210020FEF7B6F925
:1027D00038E070480078012818D10C237BA2002132
:1027E0000846FEF7ABF90C237BA202210020FEF77E
:1027F000A5F90C236FA204210020FEF79FF90C23FA
:102800006FA206210020FEF799F91BE061480078CD
:10281000022817D10C236DA200210846FEF78EF97D
:102820000C2361A202210020FEF788F90C236EA27E
:1028300004210020FEF782F90C2361A2062100206A
:10284000FEF77CF900E000BF00BF00BF32E710B523
:102850004D4890F8850010B101287CD120E014206B
:10286000494981F82400012081F88500002066494B
:102870000880FEF789F80C2364A200210846FEF7C1
:102880005DF90C23AFF2443203210020FEF756F924
:102890000C23AFF24C3206210020FEF74FF918E16D
:1028A0003A48007800282ED01420374981F82400B7
:1028B00003F0F1FD0446002CF5D0382C24D1324829
:1028C00090F88C0030B101280AD002280ED00328DD
:1028D00018D111E04C4800782B4981F88D0012E0A6
:1028E00049480078284981F88E000CE04648007875
:1028F000254981F88F0006E043480078224981F895
:10290000900000E000BFE2E0B02C07D102201E4999
:1029100081F88400002081F8850010BD4A2C7DD10B
:10292000394800880228EED037480088401C3649D4
:102930000880FEF729F834480088012870D10C235C
:10294000AFF2044200210846FEF7F8F80C2331A24A
:102950000321002000E0BBE0FEF7F0F80C23AFF20B
:10296000184206210020FEF7E9F8B0E050617373C9
:10297000776F7264204572726F72212054727920D1
:102980006167696E2E2E2E002C1200200912002085
:10299000E8110020E91100202D3E205365742041EC
:1029A000204D6F64650000005365742042204D6F18
:1029B000646500005365742043204D6F646500001A
:1029C0005365742044204D6F646500005365742086
:1029D00041204D6F646500002D3E205365742042F8
:1029E000204D6F64650000002D3E20536574204328
:1029F000204D6F64650000002D3E20536574204417
:102A0000204D6F6465000000EA1100202D3E204635
:102A1000574400002D3E20524556000019E0FFE7C4
:102A2000FB480088022852D10C23AFF2EC4200216F
:102A30000846FEF783F80C23AFF2F842032100208A
:102A4000FEF77CF80C23F3A206210020FEF776F8AF
:102A50003DE0182C3BD1EE480088C0B3EC4800881C
:102A6000401EEB490880FDF78FFFE9480088A8B9B0
:102A70000C23AFF2680200210846FEF75FF80C2332
:102A8000AFF2405203210020FEF758F80C23AFF2BA
:102A9000485206210020FEF751F818E0DC48008873
:102AA000012814D10C23AFF2685200210846FEF72A
:102AB00045F80C23AFF2A40203210020FEF73EF8F4
:102AC0000C23AFF27C5206210020FEF737F800E01D
:102AD00000BF00BF00BF20E710B5D04890F88500C8
:102AE00010B101287DD11EE01420CC4981F82400CA
:102AF000012081F885000020C9490870FDF744FFD6
:102B00000C23C8A200210846FEF718F80C23C8A21F
:102B100003210020FEF712F80C23C8A20621002092
:102B2000FEF70CF8B0E0C9480078002814D0142053
:102B3000BA4981F8240003F0AEFC0446002CF5D01D
:102B4000382C22D1B648007838B90620B34981F82C
:102B50008400002081F8850094E0B14800780128C5
:102B600007D10720AD4981F88400002081F8850055
:102B700088E0AB4800780228EED10820A74981F808
:102B80008400002081F885007CE0B02C07D1012072
:102B9000A24981F88400002081F8850072E04A2C67
:102BA00038D19F48007802286CD09D480078401C9E
:102BB0009B49087008460078012816D1FDF7E4FE0D
:102BC0000C23A3A200210846FDF7B8FF0C23A3A203
:102BD00003210020FDF7B2FF0C2398A2062100205C
:102BE00000E050E0FDF7AAFF4CE0FDF7CDFE0C231E
:102BF00097A200210846FDF7A1FF0C238CA2032118
:102C00000020FDF79BFF0C2398A206210020FDF772
:102C100095FF37E0182C35D181480078002831D055
:102C20007F480078401E7E490870084600780128D9
:102C300014D1FDF7A9FE0C2385A200210846FDF75B
:102C40007DFF0C2385A203210020FDF777FF0C23D5
:102C50007AA206210020FDF771FF13E0FDF794FE34
:102C60000C2370A200210846FDF768FF0C2370A218
:102C700003210020FDF762FF0C2370A20621002033
:102C8000FDF75CFF00E000BF00BF10BD002109E0C0
:102C90007B48405C7B4A525C904201D001207047E7
:102CA000481CC1B20629F3DB0020F8E770B5002507
:102CB00000265A4890F8850030B1012818D0022823
:102CC00056D003287ED107E11420544981F824000E
:102CD000012081F8850000206B4908700025FDF770
:102CE00053FE0C2369A200210846FDF727FF0CE1E3
:102CF0005648007800283AD00520484981F8240039
:102D000003F0C9FB0446002C31D0B02C07D10120C0
:102D1000424981F88400002081F8850070BD584840
:102D200059490978445458480078401C564908705D
:102D3000084600780007050E08460078062806D0E9
:102D400010232A2206212846FDF75CFE0FE0002012
:102D50004D4908700025FDF717FE0C2350A20021F5
:102D60000846FDF7EBFE02202C4981F88500CCE0F7
:102D700036480078002849D00520284981F82400E9
:102D800003F089FB0446002C40D0B02C07D1012071
:102D9000224981F88400002081F88500BEE7394887
:102DA00039490978445438480078401C364908703D
:102DB000084600780007050E08460078062808D067
:102DC000102300E0A0E02A2206212846FDF71AFE83
:102DD0001CE0FFF75BFF48B90026FDF7D5FD102387
:102DE00035A203210020FDF7A9FE08E00126FDF72A
:102DF000CBFD102333A203210020FDF79FFE4FF4EB
:102E0000FA6006498862032081F885007DE00000B1
:102E1000EA1100202D3E20462D5200002C120020E9
:102E2000EC1100202D3E2041646420557365720032
:102E300044656C6574652055736572004368616E06
:102E40006765204D616E61676572000009120020A0
:102E50004164642055736572000000002D3E2044DB
:102E6000656C657465205573657200002D3E2043C6
:102E700068616E6765204D616E61676500000000E6
:102E8000DA110020E0110020ED110020496E70756C
:102E900074206E65772070617373776F72643A0087
:102EA000496E707574206E65772070617373776FEB
:102EB0007264206167696E00537563636573732183
:102EC00000000000506173737764206E6F74206D92
:102ED0006174636800000000F848806A38B9012016
:102EE000F64981F88400002081F885000BE0F44861
:102EF000007840B11EB90120F04981F8840000201B
:102F0000EE4981F8850000E000BF00BF00BF05E783
:102F100010B5EA4890F8850010B101287AD11EE07A
:102F20001420E64981F82400012081F88500002062
:102F3000E4490870FDF728FD0C23E3A200210846B0
:102F4000FDF7FCFD0C23E2A203210020FDF7F6FDB6
:102F50000C23E2A206210020FDF7F0FDAAE0D848EC
:102F60000078002814D01420D44981F8240003F0FC
:102F700092FA0446002CF5D0382C22D1D1480078A2
:102F800038B90320CD4981F88400002081F88500FC
:102F90008EE0CC480078012807D10420C74981F889
:102FA0008400002081F8850082E0C648007802286D
:102FB0007ED10520C14981F88400002081F8850078
:102FC00076E0B02C02D1FFF730FA10BD4A2C37D191
:102FD000BC48007802286BD0BA480078401CB94938
:102FE000087008460078012815D1FDF7CDFC0C23A8
:102FF000BEA200210846FDF7A1FD0C23BDA20321BE
:103000000020FDF79BFD0C23B4A206210020FDF754
:1030100095FD4DE04DE0FDF7B7FC0C23B3A2002178
:103020000846FDF78BFD0C23A9A203210020FDF724
:1030300085FD0C23B3A206210020FDF77FFD37E0BC
:10304000182C35D19F480078002831D09D48007851
:10305000401E9C49087008460078012814D1FDF7ED
:1030600093FC0C23A1A200210846FDF767FD0C2369
:10307000A0A203210020FDF761FD0C2397A20621E9
:103080000020FDF75BFD13E0FDF77EFC0C238EA214
:1030900000210846FDF752FD0C238DA203210020DC
:1030A000FDF74CFD0C238DA206210020FDF746FD07
:1030B00000E000BF00BF00BF87E7F8B50020009028
:1030C0007E4890F8850005287ED2DFE800F0033EB8
:1030D00061F4B8007948806A002835D16846FEF767
:1030E00014FBBDF800000A2812DB1420734981F894
:1030F0002400032081F885004FF4FA608862FDF710
:1031000043FC0C2383A203210020FDF717FD1BE0E5
:1031100014206A4981F82400042081F885000020E9
:10312000834908808349087083490870FDF72CFCA7
:103130000C2382A200210846FDF700FD0C2384A287
:1031400003212820FDF7FAFCADE183480068F0B1C7
:103150005A48806AD8B91420584981F82400FEF7EB
:1031600039F805469DB90120FEF751F8054675B9B5
:10317000FDF70AFC0C2379A203210020FDF7DEFCF9
:103180004FF4FA604D498862022081F885008AE197
:1031900071480068002851D04848806A00284DD105
:1031A0001420464981F82400FEF714F80546002D46
:1031B00044D10220FEF72BF80546002D3ED1FEF744
:1031C00049F80546002D00E06CE12FD1FEF7A7F885
:1031D000054615BB564801880220FEF7BDF8054696
:1031E00095B9FDF7D1FB1420344981F82400032060
:1031F00081F8850040F6B830886210235CA2032174
:103200000020FDF79BFC19E0FDF7BEFB10235DA23B
:1032100003210020FDF792FC10E0FDF7B5FB0C2325
:103220005CA203210020FDF789FC07E0FDF7ACFB61
:103230000C235FA203210020FDF780FC33E120482E
:10324000007800281CD014201C4981F8240003F0C9
:1032500022F90446002CF5D0382C22D136480078CB
:1032600078B10120154981F885004FF4FA60886231
:10327000FDF78AFB0C2352A203210020FDF75EFC20
:1032800001E100200D4981F885004FF4FA60886261
:10329000FDF77AFB0C234FA200210846FDF74EFCF8
:1032A000F1E0B02C08D10420044981F8840000200A
:1032B00081F88500E7E0E7E094E000002C120020B0
:1032C00009120020EE1100202D3E204D6F64650094
:1032D00046696E6765727072696E740052657365D7
:1032E0007420506173737764000000004D6F646553
:1032F000000000002D3E2046696E6765727072699D
:103300006E7400002D3E2052657365742050617309
:103310007377640046696E6765727072696E7420B7
:1033200074656D706C6174652066756C6CA3A1002A
:10333000F0110020F2110020F3110020496E707589
:103340007420494420746F2073746F72650000000C
:103350002830207E203929003C012142506C6561D3
:10336000736520707265737320206167696E000059
:10337000416464205573657220537563636573738C
:103380000000000053746F7265204661696C6564CB
:103390000000000047656E65726174652054656DBC
:1033A000706C61746520204661696C656400000082
:1033B0004D6174636820204661696C65640000009B
:1033C000506C656173652070726573732066696EF9
:1033D000676572004E4F5420696E707574204944C1
:1033E00000000000982C11D0A22C0FD0622C0DD020
:1033F000E22C0BD0222C09D0022C07D0C22C05D0F5
:10340000E02C03D0A82C01D0902C3CD12046FEF714
:1034100043FD0646FE48008800EB800006EB4000B6
:10342000FB490880FB480078202101EB0010FA4995
:10343000087006F13000C2B210230621F648007869
:10344000FDF7E0FAF24800880A2807DAF148017827
:103450000078401CEF4A1070032914DB0020EF496C
:1034600081F8850040F6C4108862FDF78DFA0C23C0
:10347000EBA200210846FDF761FB1023EEA2062116
:103480000020FDF75BFB0EE0E448806A10B1ED48D8
:10349000007830B10420E14981F88400002081F8EF
:1034A000850000E000BF00BFF8BDF8B50020009027
:1034B000DA4890F8850030B101283FD0032873D056
:1034C000042872D172E0D548806A002835D1684658
:1034D000FEF71BF9BDF8000090B91420CF4981F820
:1034E0002400032081F885004FF4FA608862FDF71C
:1034F0004BFA0C23D4A203210020FDF71FFB1CE094
:103500001420C64981F82400042081F88500002099
:10351000D5490880D5490870D5490870FDF734FAB7
:103520000C23D4A200210846FDF708FB0C23AFF2C0
:10353000E01203211E20FDF701FBCFE0CA480088FE
:10354000B0F5967F03D1FDF76DFF054605E001213B
:10355000C5480088FDF730FF054695B9FDF714FA18
:103560001420AE4981F82400032081F8850040F63C
:10357000B83088621023C3A203210020FDF7DEFAD1
:1035800011E0FDF701FA1420A44981F8240000207D
:1035900081F8850040F6B83088621023BEA203216E
:1035A0000020FDF7CBFA99E089E096E0A548007885
:1035B000002816D01420994981F8240002F06BFFEE
:1035C0000446002C7AD0382C1DD1A948007848B187
:1035D0000120924981F885004FF4FA608862FDF776
:1035E000D3F96BE000208D4981F885004FF4FA6033
:1035F0008862FDF7C9F90C23AFF2282200210846A2
:10360000FDF79CFA5AE0B02C07D10420834981F8D9
:103610008400002081F8850050E0982C11D0A22C65
:103620000FD0622C0DD0E22C0BD0222C09D0022C12
:1036300007D0C22C05D0E02C03D0A82C01D0902CB0
:103640003CD12046FEF728FC06468748008800EB60
:10365000800006EB400084490880854800782021DE
:1036600001EB00108149087006F13000C2B210234E
:1036700006217E480078FDF7C5F97B4800880A28B6
:1036800007DA7B4801780078401C794A10700329DA
:1036900014DB0020614981F8850040F6C41088627F
:1036A000FDF772F90C235EA200210846FDF746FAE9
:1036B000102361A206210020FDF740FA0EE05748D2
:1036C000806A10B15F48007830B10420534981F816
:1036D0008400002081F8850000E000BF00BFF8BD35
:1036E00010B54E4890F8840009281FD2DFE800F09A
:1036F00005080B0E1114171A1D00FEF7C8FE18E07E
:10370000FFF706FC15E0FEF784FF12E0FFF79FF8D5
:103710000FE0FFF7E1F90CE0FFF7C8FA09E0FFF767
:10372000CCFC06E0FFF7C1FE03E002E0FEF75CFF21
:1037300000BF00BF10BD08B5FDF726F95A480823A1
:103740008022002100900846FDF74DFA334890F89A
:103750009D00072807D1554804232022002100900E
:103760000846FDF740FA2D4890F89E00072807D13B
:103770004E4804234022002100902020FDF733FA18
:10378000264890F89F00072807D148480423602264
:10379000002100904020FDF726FA204890F8A00074
:1037A000072807D14148042380220021009060208F
:1037B000FDF719FA08BD3EB500200190174890F8B2
:1037C0008400FF2805D0154890F88400002841F0B7
:1037D0006C84124890F886000B2881F06484DFE83E
:1037E00010F00B006E009005620CB205F80030017D
:1037F0006101C401D103550C2D48006830B164202B
:1038000006498862012081F8860053E055E00000F7
:10381000F0110020F3110020F21100202C120020E2
:103820006E756D626572204D6F7265207468616E91
:10383000204D415800000000547279206167696E84
:10384000000000000912002046696E676572707200
:10385000696E742074656D706C61746520656D703F
:103860007479A3A100000000F4110020F6110020DB
:10387000F7110020496E70757420494420746F2040
:1038800064656C0044656C205573657220537563E4
:10389000636573730000000044656C2055736572A6
:1038A000204661696C6564004006002048100020D5
:1038B0003C0121420020F949087001F0F5BBF848AD
:1038C000806A002878D1FDF785FC0446002C79D168
:1038D0000120FDF79CFC0446002C73D102AB0A22A8
:1038E00000210120FDF7D3FC0446002C50D1BDF887
:1038F0000800EC4908801420E94981F824000846B2
:10390000008C00F57A708862002081F88700E54815
:10391000008818B9052081F8860003E00220E049FC
:1039200081F88600FDF730F81023DFA20021202067
:10393000FDF704F9DB480088642190FBF1F030309A
:10394000C5B210232A4603212820FDF75BF8D5488D
:1039500000880A2190FBF1F090FBF1F201FB1200CC
:103960003030C5B210232A4603213820FDF74AF82B
:10397000CC4800880A2190FBF1F201FB12003030A4
:10398000C5B210232A4603214820FDF73BF819E071
:10399000C2480078042815DB1420C14981F82400AE
:1039A0000846008C00F5FA6088620A2081F88600DB
:1039B000FCF7EAFF102300E00AE0BEA2032100208A
:1039C000FDF7BCF824B1B5480078401CB349087035
:1039D00073E7B348806A002832D18021BB4804F0E5
:1039E00050F868B34FF48071B84804F04AF838B31F
:1039F0004FF40071B54804F044F808B31420A84906
:103A000081F824008862062081F88600002081F871
:103A10008700AF490870FCF7B7FF0C23ADA2002167
:103A20003020FDF78BF80C23AFF60842032120204D
:103A3000FDF784F80C23A9A205212020FDF77EF8CC
:103A40003BE78021A14804F01CF830B914209449C8
:103A500081F82400072081F886004FF480719B488C
:103A600004F00FF828B900208D4981F82400FEF7F2
:103A7000DCFC4FF40071954804F003F888B9142079
:103A8000874981F82400002081F887009048007859
:103A900018B9082081F8860003E00920804981F8E0
:103AA00086000AE77E48006B00B106E78021874860
:103AB00003F0E7FF58B14FF48071844803F0E1FF51
:103AC00028B14FF40071814803F0DBFF18B91420CE
:103AD0007349086348E01420714981F824007C4848
:103AE0000078401CC0B27A490870022801DB00202F
:103AF00008707748007810B101282CD115E0FCF748
:103B000043FF0C2373A200213020FDF717F80C238C
:103B1000AFF6F04203212020FDF710F80C236FA22E
:103B200005212020FDF70AF819E0FCF72DFF0C23F2
:103B300068A200213020FDF701F80C23AFF6F04217
:103B400003212020FCF7FAFF0C2367A20521202087
:103B5000FCF7F4FF03E000205D49087000BF00BFE0
:103B600006204F4981F88600A7E64FF400715748B8
:103B700003F087FF00B9A0E6494890F887000C28B9
:103B80007ED2DFE800F0067D7D7D7D7D7DFBFA4CF9
:103B900085F94348806A002840D101A8FDF7B5FDAA
:103BA000BDF804000A2813DB14203D4981F82400E5
:103BB0004FF4FA608862052081F88600FCF7E4FE85
:103BC0000C23AFF6B00203210020FCF7B7FF25E07D
:103BD0001420334981F82400092081F8870000204F
:103BE000304908803A490870FCF7CEFE0C2341A208
:103BF00000210846FCF7A2FF0C2342A2022120204C
:103C0000FCF79CFF0C2341A204212020FCF796FF27
:103C10000C233FA206212020FCF790FFB0E1802179
:103C20002A4803F02EFF30B914201D4981F82400E2
:103C30000A2081F887004FF48071244803F021FFA7
:103C400030B91420164981F82400052081F8860037
:103C50004FF400711D4803F014FFC0B9142010493F
:103C600081F82400072081F88700194800780D4961
:103C700008804FF47A700A498862FCF785FE00E0FC
:103C80007DE10C2323A203210020FCF757FF77E1FD
:103C90000348006B00B173E144E00000F81100201C
:103CA0002C120020FC11002055736572204944201D
:103CB0000000000043616E27742066696E65642011
:103CC00066696E6765727072696E0000000C014073
:103CD000FA1100204D616E616765000044656C203B
:103CE00055736572000000002D3E2044656C205520
:103CF0007365720043686F6F7365204944202831F3
:103D00007E3929002D3E20310000000032000000E5
:103D100033000000506C65617365207072657373C9
:103D2000000000008021FE4803F0ABFE18B914200B
:103D3000FC49086360E0FC480078401CC0B2FA49C6
:103D400008700A2801DB01200870F748007808286D
:103D500015D10C23F5A202212020FCF7EFFE0C2345
:103D6000F4A204212020FCF7E9FE0C23F2A2062194
:103D70002020FCF7E3FE3BE0ECE06FE03DE0EA48AA
:103D80000078092813D10C23ECA202212020FCF793
:103D9000D5FE0C23E8A204212020FCF7CFFE0C2343
:103DA000AFF2980206212020FCF7C8FE20E00C2389
:103DB000E4A202212020FCF7C1FEDB48007830306D
:103DC000C2B20C2302213820FCF71CFED648007832
:103DD0003130C2B20C2304212020FCF713FED2485C
:103DE00000783230C2B20C2306212020FCF70AFEF4
:103DF0000920CC4981F88700C2E0D3480068F8B1B7
:103E0000C848806AE0B91420C64981F82400FDF74B
:103E1000E1F90446A4B90120FDF7F9F904467CB99B
:103E2000FCF7B2FD0C23AFF6CC2203210020FCF7F7
:103E300085FE4FF47A70BB498862082081F88700BC
:103E40004FF48071B64803F01CFE30B91420B54918
:103E500081F82400052081F8860091E0BA480068C6
:103E6000002869D0AF48806A002865D11420AD4988
:103E700081F82400FDF7AEF90446002C5CD1022045
:103E8000FDF7C5F90446002C56D1FDF7E3F90446C9
:103E90007CBBFDF744FA044664BBAC4801880220B1
:103EA000FDF75AFA04469CB9FCF76EFD14209D49B3
:103EB00081F824000B2081F8870040F6B830886232
:103EC0001023AFF6543203210020FCF737FE33E015
:103ED000FCF75AFD1023AFF6543203210020FCF703
:103EE0002DFE07208F4981F8870040F6B8308862A0
:103EF00022E011E0FFE7FCF747FD0C23AFF66C3240
:103F000003210020FCF71AFE0720864981F887006C
:103F100040F6B83088620FE0FCF736FD0C23AFF6B0
:103F2000703203210020FCF709FE07207D4981F84B
:103F3000870040F6B83088624FF48071784803F00B
:103F4000A0FD30B91420774981F82400052081F8BC
:103F5000860015E07348806A18B90620714981F817
:103F600086004FF480716E4803F08BFD30B9142049
:103F70006C4981F82400052081F8860000E000BF2C
:103F800000BF9AE44FF40071654803F07AFD00B970
:103F900093E4644890F887000C287DD2DFE800F0B5
:103FA000067C7C7C7C7C7CFAF94E9AF85D48806AC1
:103FB000F0BB01A8FDF7A9FBBDF8040090B91420DF
:103FC000584981F824004FF4FA608862052081F88E
:103FD0008600FCF7D9FC0C235DA203210020FCF72E
:103FE000ADFD2AE014204F4981F82400092081F812
:103FF00087000020554908804B490870FCF7C4FC35
:104000000C235AA200210846FCF798FD0C23AFF2BE
:104010000C3202212020FCF791FD0C23AFF2143268
:1040200004212020FCF78AFD0C23AFF21C3200E0B3
:1040300003E006212020FCF781FD60E13948806A19
:1040400000B15CE18021364803F01BFD30B914203B
:10405000344981F824000A2081F887004FF48071E8
:104060002F4803F00EFD30B914202E4981F82400AA
:10407000052081F886004FF40071294803F001FD06
:1040800038BB1420274981F824000B2081F88700D1
:10409000254800782D4900E030E108804FF47A701F
:1040A00020498862FCF770FC0C2334A20321002015
:1040B000FCF744FD0C2334A205210020FCF73EFD53
:1040C000224800783030C2B20C2305213020FCF7A2
:1040D00099FC14E11348006B00B110E180211048F5
:1040E00003F0CFFC18B914200E4908639DE00E4878
:1040F0000078401CC0B20C4908700A2801DB01207E
:1041000008700948007808284FD10C2307A2022123
:104110002020FCF713FD0C2306A2042120203AE006
:10412000000C01402C120020FA1100202D3E2038F6
:104130000000000039000000310000002D3E203951
:10414000000000002D3E20003C012142FC11002017
:1041500046696E6765727072696E742074656D7001
:104160006C617465204E756C6CA3A10044656C2075
:1041700049442028317E39290000000053757265BA
:104180002044656C203F00004944203A2000000094
:104190009CE066E04AE0FCF7D1FC0C23AFF2680239
:1041A00006212020FCF7CAFC3BE0FE4800780928E5
:1041B00015D10C23AFF27C0202212020FCF7BEFCBB
:1041C0000C23AFF28C0204212020FCF7B7FC0C2357
:1041D000AFF2C84206212020FCF7B0FC21E00C23FE
:1041E000AFF2A00202212020FCF7A8FCED480078E5
:1041F0003030C2B20C2302213820FCF703FCE9481E
:1042000000783130C2B20C2304212020FCF7FAFBE5
:10421000E44800783230C2B20C2306212020FCF79B
:10422000F1FB0920E04981F8870068E04FF48071D4
:10423000DE4803F026FC30B91420DB4981F8240065
:10424000092081F887004FF40071D84803F019FC69
:1042500030B91420D44981F82400082081F887005F
:104260004DE04FF40071D14803F00BFC68B301211D
:10427000CF480088FDF7A0F804469CB9FCF784FB02
:104280001420C94981F82400092081F887004FF4DF
:104290007A7088621023AFF6142203210020FCF705
:1042A0004DFC12E0FCF770FB1420BF4981F824009C
:1042B000092081F887004FF47A7088621023AFF6E6
:1042C000282203210020FCF739FC18E04FF400718C
:1042D000B64803F0D6FB18B10720B34981F8870030
:1042E0004FF48071B14803F0CCFB30B91420AE49D3
:1042F00081F82400052081F8860000E000BF00BF9F
:1043000032E4A948806AE8B98021A84803F0B9FBE3
:10431000C0B14FF48071A54803F0B3FB90B14FF4E6
:104320000071A24803F0ADFB60B114209E4981F8F2
:1043300024008862042081F88600002081F887002C
:10434000FFF7F9F910E49848806A00287ED1964872
:1043500090F887000C287AD2DFE810F00C00FC00FF
:104360008C010B022A050C055806790079007900AA
:10437000790076064FF480718C4803F082FB28B9EF
:104380000020894981F82400FEF74FF8082187486A
:1043900003F077FB08BB1420834981F824000B202D
:1043A00081F8870028208862084690F89D0005283B
:1043B00004D0084690F89D0007280AD100207A49C9
:1043C00081F89D00FFF7B7F90020774981F8A50033
:1043D00003E00120744981F8A5001021734803F01F
:1043E00050FB08BB1420704981F824000B2081F891
:1043F000870028208862084690F89E00052804D08F
:10440000084690F89E0007280AD10020664981F8E6
:104410009E00FFF790F90020634981F8A60003E0B1
:104420000120614981F8A6002021604803F029FBA2
:10443000F8B914205C4981F824000B2081F887002A
:1044400028208862084690F89F0001E0FEE3FEE322
:10445000052804D0084690F89F0007280AD10020BC
:10446000514981F89F00FFF766F900204E4981F815
:10447000A70003E001204C4981F8A70040214B48E8
:1044800003F0FFFA08BB1420474981F824000B20F1
:1044900081F8870028208862084690F8A000052847
:1044A00004D0084690F8A00007280AD100203E4911
:1044B00081F8A000FFF73FF900203B4981F8A800F0
:1044C00003E00120384981F8A8008021374803F033
:1044D000D8FAC8B91420344981F82400012081F8A1
:1044E0008700002033490870FCF74EFA0C2332A2F3
:1044F00000210846FCF722FB3448072380220321D1
:1045000000900020FCF76FFB4FF48071274803F008
:10451000B8FA4FF40071254803F0B3FAC8B9142073
:10452000214981F82400022081F8870000202149D8
:104530000870FCF729FA0C231FA200210846FCF79B
:10454000FDFA224807238022032100900020FCF777
:104550004AFBFDE30821154803F093FA10B9012046
:10456000144908701021114803F08BFA10B9022089
:104570001049087020210D4803F083FA10B9032078
:104580000C4908704021094803F07BFA10B9042057
:104590000849087007480078F0B31420024981F8F0
:1045A000240015E0FA1100202C120020000C01401C
:1045B000FC110020F911002043686F6F73652077AC
:1045C00068696368206F6E6500000000400A002083
:1045D000032081F8870000200863FD490870FCF77C
:1045E000D3F9FC4800784030C2B2102300210846BD
:1045F000FCF708FA01200423022210210090002079
:10460000FCF730FB0C23F4A202213020FCF796FAD1
:104610000C23F34A032100E01EE03020FCF78EFA61
:104620000C23EF4A121D04213020FCF787FA0C23DB
:10463000EB4A083205213020FCF780FA0C23E84AC7
:104640000C3206213020FCF779FA0C23E44A1432AC
:1046500007213020FCF772FA4FF48071E14803F033
:1046600010FA30B91420E04981F82400022081F8C2
:1046700086006EE70821DB4803F003FA50B91420E6
:10468000D94981F824000120D24908700420D64974
:1046900081F887001021D34803F0F3F950B91420B2
:1046A000D14981F824000220CA4908700420CE496B
:1046B00081F887002021CB4803F0E3F950B914209A
:1046C000C94981F824000320C24908700420C64962
:1046D00081F887004021C34803F0D3F948B914207A
:1046E000C14981F824000420BA490870BE4981F804
:1046F0008700B848007870B31420BB4981F82400C3
:1047000000200863B2490870FCF73EF9B148007810
:104710004030C2B2102300210846FCF773F9012093
:1047200004230222102100900020FCF79BFA0C23A6
:10473000AEA201213020FCF701FA0C23A84A0C3A62
:1047400003213020FCF7FAF90C23A54A083A052189
:104750003020FCF7F3F94FF48071A24803F091F98F
:1047600030B91420A04981F82400022081F8860085
:10477000EFE680219B4803F084F900287DD11420C6
:10478000994981F82400052081F88700FCF7FCF89E
:10479000904800784030C2B2102300210846FCF750
:1047A00031F9012004230222102100900020FCF79F
:1047B00059FA87480078401CC0B28549087006281D
:1047C00001DB002008708248007806287ED2DFE8EE
:1047D00000F0032C5883ACD50C237FA2022130209B
:1047E000FCF7ACF90C237E4A03213020FCF7A6F934
:1047F0000C237B4A121D04213020FCF79FF90C2367
:10480000774A083205213020FCF798F90C23744AC6
:104810000C3206213020FCF791F90C23704A143237
:1048200007213020FCF78AF9FCE00C236C4A121FA8
:1048300002213020FCF782F90C236EA203213020E4
:10484000FCF77CF90C23664A121D04213020FCF78A
:1048500075F90C23624A083205213020FCF76EF905
:104860000C235F4A0C3206213020FCF767F90C2339
:104870005B4A14320721302000E0D4E0FCF75EF9F7
:10488000D0E00C23564A121F01213020FCF756F9C4
:104890000C23534A03213020FCF750F90C2357A274
:1048A00004213020FCF74AF90C234D4A0832052137
:1048B0003020FCF743F90C23494A0C320621302002
:1048C000FCF73CF90C23464A143200E0A6E007212D
:1048D0003020FCF733F9A5E00C23414A121F0221D6
:1048E0003020FCF72BF90C233D4A03213020FCF744
:1048F00025F90C233A4A121D04213020FCF71EF939
:104900000C2340A205213020FCF718F90C23344A6F
:104910000C3206213020FCF711F90C23304A1432F6
:1049200007213020FCF70AF97CE00C232C4A121FE7
:1049300002213020FCF702F90C23294A0321302000
:10494000FCF7FCF80C23264A121D04213020FCF74A
:10495000F5F80C23224A083205213020FCF7EEF846
:104960000C232AA206213020FCF7E8F80C231C4A6D
:10497000143207213020FCF7E1F853E00C23184AE9
:10498000121F02213020FCF7D9F80C23144A03210E
:104990003020FCF7D3F80C23114A121D04213020DB
:1049A000FCF7CCF80C230E4A083205213020FCF726
:1049B000C5F80C230A4A0C3206213020FCF7BEF859
:1049C0000C2314A207213020FCF7B8F82AE00000DD
:1049D000FA110020F91100202D3E5450440000002F
:1049E00050250008000C01402C1200202D3E465797
:1049F000440000002D3E3635300000002D3E373596
:104A0000300000002D3E3835300000002D3E3130A2
:104A1000303000002D3E3139353000000020FE4995
:104A2000087000BF00BF4FF48071FC4803F029F804
:104A300030B91420FA4981F82400022081F8860058
:104A40004FF40071F54803F01CF800287ED11420C3
:104A5000F34981F82400052081F88700EE480078AA
:104A6000062874D2DFE800F0032C5682ABD40C2366
:104A7000ECA202213020FCF761F80C23EB4A032161
:104A80003020FCF75BF80C23E84A121D042130208B
:104A9000FCF754F80C23E54A083205213020FCF7D6
:104AA0004DF80C23E14A0C3206213020FCF746F881
:104AB0000C23DE4A143207213020FCF73FF8D7E000
:104AC0000C23DA4A121F02213020FCF737F80C239E
:104AD000D7A203213020FCF731F80C23D34A121D52
:104AE00004213020FCF72AF80C23D04A0832052193
:104AF0003020FCF723F80C23CC4A0C32062130205E
:104B0000FCF71CF80C23C94A143207213020FCF7AB
:104B100015F8ADE00C23C54A121F01213020FCF727
:104B20000DF80C23C14A03213020FCF707F80C23B1
:104B3000C1A204213020FCF701F80C23BB4A083243
:104B400005213020FBF7FAFF0C2301E011E18BE097
:104B5000B64A0C3206213020FBF7F0FF0C23B34A93
:104B6000143207213020FBF7E9FF81E00C23AF4A24
:104B7000121F02213020FBF7E1FF0C23AB4A032177
:104B80003020FBF7DBFF0C23A84A121D0421302044
:104B9000FBF7D4FF0C23AAA205213020FBF7CEFFA0
:104BA0000C23A24A0C3206213020FBF7C7FF0C234E
:104BB0009E4A143207213020FBF7C0FF58E00C2337
:104BC0009A4A121F02213020FBF7B8FF0C23974AA4
:104BD00003213020FBF7B2FF0C23944A121D04215D
:104BE0003020FBF7ABFF0C23904A08320521302020
:104BF000FBF7A4FF0C2394A206213020FBF79EFFB5
:104C00000C238A4A143207213020FBF797FF2FE04C
:104C10000C23864A121F02213020FBF78FFF0C2342
:104C2000824A03213020FBF789FF0C237F4A121DA3
:104C300004213020FBF782FF0C237C4A0832052137
:104C40003020FBF77BFF0C23784A01E01DE21AE2DB
:104C50000C3206213020FBF771FF0C237DA20721C7
:104C60003020FBF76BFF03E000206B49087000BFAA
:104C700000BF7B480078012806D0022820D00328F6
:104C80003AD0042873D153E063480078644981F82E
:104C9000950061480078401C00EB4000714901EB31
:104CA000800040685E4988635B480078401C00EBE8
:104CB00040006C4901EB800080685949486357E027
:104CC00055480078564981F8960053480078401CB2
:104CD00000EB4000634901EB8000406850490864E4
:104CE0004D480078401C00EB40005E4901EB80001D
:104CF00080684B49C8633BE047480078484981F8E1
:104D0000970045480078401C00EB4000554901EBF6
:104D100080004068424988643F480078401C00EBAE
:104D20004000504901EB800080683D4948641FE025
:104D3000394800783A4981F8980037480078401C93
:104D400000EB4000474901EB80004068344900E037
:104D50009AE1086530480078401C00EB400041496A
:104D600001EB800080682E49C86401E0FFE700BFC6
:104D700000BF89E12A48006B00B185E18021274806
:104D800002F07FFE58B14FF48071244802F079FEA2
:104D900028B14FF40071214802F073FE18B91420B5
:104DA0001F49086303E003201D4981F887006BE178
:104DB0001B48006B00B167E18021184802F061FEDA
:104DC00040BB1420164981F82400062081F8870092
:104DD00011480078401CC0B20F490870032801DB5D
:104DE00000200870FBF7D0FD1D4800784030C2B2AB
:104DF000102300210846FBF705FE012004230222B0
:104E0000102100900020FBF72DFF0348007810B11F
:104E1000012829E06FE02BE0FA110020000C01408E
:104E20002C1200202D3E545044202A00502500080A
:104E30002D3E363530202A002D3E373530202A00D1
:104E40002D3E383530202A002D3E31303030202A9A
:104E5000000000002D3E31393530202A00000000CE
:104E6000F9110020C810002017D002283ED129E0F7
:104E70000C23AFF2884201213020FBF75FFE0C23A8
:104E8000F94A03213020FBF759FE0C23F64A121D84
:104E900005213020FBF752FE2CE00C23F24A121FB2
:104EA00001213020FBF74AFE0C23F0A20321302021
:104EB000FBF744FE0C23EC4A121D05213020FBF7C2
:104EC0003DFE17E00C23E84A121F01213020FBF7BA
:104ED00035FE0C23E44A03213020FBF72FFE0C2380
:104EE000E4A205213020FBF729FE03E00020E3497E
:104EF000087000BF00BF4FF48071E14802F0C1FDAF
:104F000030B91420DF4981F82400022081F886009E
:104F10004FF40071DA4802F0B4FD80BBD748007846
:104F200020B1012816D002283ED129E00C23D6A2B8
:104F300001213020FBF702FE0C23CB4A0321302055
:104F4000FBF7FCFD0C23C84A121D05213020FBF79E
:104F5000F5FD2DE00C23C44A121F01213020FBF780
:104F6000EDFD0C23CAA203213020FBF7E7FD0C2343
:104F7000BD4A121D05213020FBF7E0FD18E044E09A
:104F80000C23B94A121F01213020FBF7D7FD0C2357
:104F9000B54A03213020FBF7D1FD0C23BEA2052129
:104FA0003020FBF7CBFD03E00020B449087000BFC0
:104FB00000BF1420B34981F82400062081F887003F
:104FC000B7480078012806D002280AD003280ED05E
:104FD000042818D111E0A9480078AA4981F88D0069
:104FE00012E0A6480078A74981F88E000CE0A3489B
:104FF0000078A44981F88F0006E0A0480078A14914
:1050000081F8900000E000BF00BF3DE09D48006BCC
:1050100000B139E080219A4802F033FD58B14FF4D5
:105020008071974802F02DFD28B14FF4007194482B
:1050300002F027FD18B914209249086303E0042008
:10504000904981F887001FE08E48806A00B11BE01C
:1050500008218B4802F015FDA0B11021884802F00C
:1050600010FD78B12021864802F00BFD50B140219F
:10507000834802F006FD28B10020824981F88700AC
:105080002820886200E000BF00BF0DE07D48806AF4
:1050900010B9FDF7CAF905E08248007810B1002088
:1050A0007849886200E000BF00BF3EBD10B575487A
:1050B00090F89D00082873D2DFE800F004191A5810
:1050C000C4FBFAD56F48406D80B96E4890F89500E2
:1050D00000EB4000744901EB800040686949886337
:1050E000022081F89D00002081F8A1005FE15EE1CF
:1050F000644890F88D0060B90121614802F0DBFC42
:1051000002215F4802F0D9FC03205E4981F89D002E
:1051100025E05C4890F88D0001280CD10221584808
:1051200002F0C9FC0121564802F0C7FC0320554992
:1051300081F89D0013E0534890F88D0002280ED1AD
:1051400000205A49087001214D4802F0B4FC0221A8
:105150004B4802F0B2FC04204A4981F89D004948BE
:1051600090F88D00474981F8910020E1454890F87A
:105170008D00444991F8911088420AD0032140489B
:1051800002F09BFC00203F4981F89D00C820486543
:105190000DE13C4890F8A10018B101284FD11AE068
:1051A00004E13848806BA8B9364890F8950000EBC8
:1051B00040003D4901EB800080683249486301208E
:1051C00081F8A10001212E4802F077FC02212C4831
:1051D00002F073FC34E02B48406B78BB294890F810
:1051E000950000EB4000304901EB80004068254904
:1051F0008863002081F8A100084690F88D0060B90E
:1052000001211F4802F057FC02211D4802F055FC05
:1052100003201C4981F89D0010E01A4890F88D0089
:1052200001280BD10221164802F045FC0121144847
:1052300002F043FC0320134981F89D0000E000BF09
:1052400000BFB4E00F4890F88D000E4991F891101E
:1052500088422FD003210A4802F02FFC0020094980
:1052600081F89D00A3E0A0E0442500082D3E5245B2
:10527000560000002D3E462D52000000FA1100207D
:10528000000C01402C1200202D3E465744202A00DD
:105290002D3E524556202A002D3E462D52202A00F2
:1052A000F911002009120020C8100020FE11002072
:1052B0007AE069E0F74890F8A10010B1012860D1C8
:1052C00042E0F448806BB0B9F24890F8950000EBEA
:1052D0004000F14901EB80008068EE4948630120FD
:1052E00081F8A1000121ED4802F0E7FB0221EB4823
:1052F00002F0E3FB27E0E748406D20BB1021E848BF
:1053000002F0BFFBF8B9E348008C00F5FA70E14900
:105310004865E448007858B90120E2490870022144
:10532000DE4802F0C8FB0121DC4802F0C6FB0AE0BF
:105330000020DC4908700121D84802F0BCFB0221A2
:10534000D64802F0BAFB1DE0D248406BC0B900203D
:10535000D4490870CF4890F8950000EB4000CE4942
:1053600001EB80004068CB498863002081F8A100F0
:105370000121CA4802F09FFB0221C84802F09DFBB0
:1053800000E000BF00BF12E0C248406B58B90221E4
:10539000C24802F092FB0121C04802F08EFB0720B8
:1053A000BC4981F89D0002E001E000E000BF00BFC1
:1053B00010BD10B5B74890F89E00082872D2DFE8FB
:1053C00000F004191A5DCEFDFCFBB248806D80B977
:1053D000B04890F8960000EB4000AF4901EB800028
:1053E0004068AC490864022081F89E00002081F8E2
:1053F000A2005CE15BE1A74890F88E0070B94FF421
:105400008061A64802F057FB4FF40061A34802F008
:1054100054FB03209F4981F89E0028E09D4890F8A6
:105420008E0001280DD1C1029C4802F044FB4FF4CC
:1054300080619A4802F041FB0320964981F89E0062
:1054400015E0944890F88E00022810D1002096496B
:1054500008704FF48061914802F02DFB4FF4006119
:105460008E4802F02AFB04208A4981F89E00894870
:1054700090F88E00874981F8920018E1854890F8ED
:105480008E00844991F8921088420CD04FF440610C
:10549000824802F012FB00207E4981F89E00C8205D
:1054A000886504E102E17B4890F8A20010B1012870
:1054B00052D11AE07748006CB0B9764890F896005F
:1054C00000EB4000744901EB800080687149C863BB
:1054D000012081F8A2008102704802F0EEFA4FF438
:1054E00000616E4802F0E9FA37E06A48C06BF8B92B
:1054F000684890F8960000EB4000674901EB800097
:10550000406864490864002081F8A200084690F8C9
:105510008E0070B94FF48061604802F0CCFA4FF40D
:1055200000615E4802F0C9FA03205A4981F89E00E2
:1055300011E0584890F88E0001280CD1C10257485C
:1055400002F0B9FA4FF48061544802F0B6FA032031
:10555000504981F89E0000E000BF00BFA7E04D4821
:1055600090F88E004B4991F89210884209D04FF480
:1055700040614A4802F0A1FA0020464981F89E00A5
:1055800095E0444890F8A20010B101286AD14AE0A1
:105590004048006CD8B93F4890F8960000EB4000B6
:1055A0003D4901EB800080683A49C863012081F8D9
:1055B000A2008102394802E069E069E055E002F0AA
:1055C0007CFA4FF40061354802F077FA2AE031485E
:1055D000806D38BB2021324802F053FA10BB2D48B1
:1055E000008C00F5FA702B4988652F48007860B967
:1055F00001202D490870C102284802F05CFA4FF4DE
:105600008061264802F059FA0CE000202649087013
:105610004FF48061214802F04EFA4FF400611F48B8
:1056200002F04BFA1FE01B48C06BD0B900201E49A6
:105630000870184890F8960000EB4000164901EBFE
:105640008000406813490864002081F8A2004FF4EC
:105650008061124802F02FFA4FF400610F4802F007
:105660002CFA00E000BF00BF00BF0A48C06B68B959
:105670004FF40061094802F020FA4FF480610748B6
:1056800002F01BFA0720034981F89E000FE00EE0AC
:105690000DE000002C120020C8100020000C01407A
:1056A00000080140FE110020FF11002000BF00BFD4
:1056B00010BD10B5F54890F89F00082872D2DFE8B9
:1056C00000F004191A5DCEFDFCFBF048C06D80B9F6
:1056D000EE4890F8970000EB4000ED4901EB8000A8
:1056E0004068EA498864022081F89F00002081F820
:1056F000A3004FE14EE1E54890F88F0070B94FF4F8
:105700008051E44802F0D7F94FF40051E14802F02B
:10571000D4F90320DD4981F89F0028E0DB4890F8A8
:105720008F0001280DD14103DA4802F0C4F94FF48B
:105730008051D84802F0C1F90320D44981F89F0074
:1057400015E0D24890F88F00022810D10020D249ED
:1057500008704FF48051CF4802F0ADF94FF400517A
:10576000CC4802F0AAF90420C84981F89F00C74834
:1057700090F88F00C54981F893000BE1C34890F879
:105780008F00C24991F8931088420CD04FF44051D9
:10579000C04802F092F90020BC4981F89F00C8205F
:1057A000C865F7E0F5E0B94890F8A30010B101280A
:1057B00052D11AE0B548806CB0B9B44890F897005F
:1057C00000EB4000B24901EB80008068AF494864BB
:1057D000012081F8A3000103AE4802F06EF94FF4F6
:1057E0000051AC4802F069F937E0A848406CF8B9BC
:1057F000A64890F8970000EB4000A54901EB800017
:105800004068A2498864002081F8A300084690F807
:105810008F0070B94FF480519E4802F04CF94FF45C
:1058200000519C4802F049F90320984981F89F00F3
:1058300011E0964890F88F0001280CD1410395485B
:1058400002F039F94FF48051924802F036F9032002
:105850008E4981F89F0000E000BF00BF9AE08B48AE
:1058600090F88F00894991F89310884209D04FF43D
:105870004051884802F021F90020844981F89F00B6
:1058800088E0824890F8A30010B101286AD14AE06C
:105890007E48806CD8B97D4890F8970000EB4000B6
:1058A0007B4901EB8000806878494864012081F8D9
:1058B000A3000103774802E069E069E055E002F0E7
:1058C000FCF84FF40051734802F0F7F82AE06F48F3
:1058D000C06D38BB4021714802F0D3F810BB6B4853
:1058E000008C00F5FA706949C8656B48007860B9AA
:1058F0000120694908704103664802F0DCF84FF462
:105900008051644802F0D9F80CE000206249087028
:105910004FF480515F4802F0CEF84FF400515D48DB
:1059200002F0CBF81FE05948406CD0B900205A492A
:105930000870564890F8970000EB4000544901EB7E
:105940008000406851498864002081F8A3004FF42A
:105950008051504802F0AFF84FF400514D4802F02A
:10596000ACF800E000BF00BF14E04848406C68B9E4
:105970004FF40051474802F0A0F84FF480514548D9
:1059800002F09BF80720414981F89F0002E001E006
:1059900000E000BF00BF10BD10B53C4890F8A0006B
:1059A000082872D2DFE800F004191A5DDAF5F4F382
:1059B0003648006E80B9354890F8980000EB4000FA
:1059C000334901EB8000406830490865022081F8C6
:1059D000A000002081F8A4005AE159E12B4890F87A
:1059E000900070B94FF480412A4802F064F84FF4F7
:1059F0000041284802F061F80320244981F8A00002
:105A000028E0224890F8900001280DD1C1032148D8
:105A100002F051F84FF480411E4802F04EF8032086
:105A20001A4981F8A00015E0184890F89000022863
:105A300010D100201A4908704FF48041154802F037
:105A40003AF84FF40041134802F037F804200F49A8
:105A500081F8A0000D4890F890000C4981F894005E
:105A600016E10A4890F89000084991F8941088428D
:105A700018D04FF44041074802F01FF800200349B6
:105A800081F8A000C820086602E100E12C12002085
:105A9000C8100020000C0140001200200008014046
:105AA00001120020F74890F8A40010B1012852D14B
:105AB0001AE0F448006DB0B9F24890F8980000EB95
:105AC0004000F14901EB80008068EE49C864012084
:105AD00081F8A4008103ED4801F0EFFF4FF400418D
